{
  "_format": "hh-sol-artifact-1",
  "contractName": "LinkDonation",
  "sourceName": "contracts/LinkDonation.sol",
  "abi": [
    {
      "inputs": [
        {
          "internalType": "address",
          "name": "_tokenContract",
          "type": "address"
        }
      ],
      "stateMutability": "nonpayable",
      "type": "constructor"
    },
    {
      "anonymous": false,
      "inputs": [
        {
          "indexed": true,
          "internalType": "address",
          "name": "donor",
          "type": "address"
        },
        {
          "indexed": false,
          "internalType": "uint256",
          "name": "amountDonated",
          "type": "uint256"
        }
      ],
      "name": "Donation",
      "type": "event"
    },
    {
      "inputs": [
        {
          "internalType": "uint256",
          "name": "amount",
          "type": "uint256"
        }
      ],
      "name": "addPay",
      "outputs": [],
      "stateMutability": "payable",
      "type": "function"
    },
    {
      "inputs": [],
      "name": "donated",
      "outputs": [
        {
          "internalType": "uint256",
          "name": "",
          "type": "uint256"
        }
      ],
      "stateMutability": "view",
      "type": "function"
    },
    {
      "inputs": [],
      "name": "getPays",
      "outputs": [
        {
          "internalType": "uint256",
          "name": "",
          "type": "uint256"
        }
      ],
      "stateMutability": "view",
      "type": "function"
    },
    {
      "inputs": [
        {
          "internalType": "uint256",
          "name": "_amount",
          "type": "uint256"
        }
      ],
      "name": "withdrawToken",
      "outputs": [],
      "stateMutability": "nonpayable",
      "type": "function"
    }
  ],
  "bytecode": "0x6080604052600060015534801561001557600080fd5b506040516108d33803806108d3833981810160405281019061003791906100d3565b336000806101000a81548173ffffffffffffffffffffffffffffffffffffffff021916908373ffffffffffffffffffffffffffffffffffffffff16021790555080600260006101000a81548173ffffffffffffffffffffffffffffffffffffffff021916908373ffffffffffffffffffffffffffffffffffffffff16021790555050610145565b6000815190506100cd8161012e565b92915050565b6000602082840312156100e557600080fd5b60006100f3848285016100be565b91505092915050565b60006101078261010e565b9050919050565b600073ffffffffffffffffffffffffffffffffffffffff82169050919050565b610137816100fc565b811461014257600080fd5b50565b61077f806101546000396000f3fe60806040526004361061003f5760003560e01c80631e766de61461004457806350baa62214610060578063639bbb3714610089578063fc5e316e146100b4575b600080fd5b61005e60048036038101906100599190610415565b6100df565b005b34801561006c57600080fd5b5061008760048036038101906100829190610415565b610252565b005b34801561009557600080fd5b5061009e6103b2565b6040516100ab9190610542565b60405180910390f35b3480156100c057600080fd5b506100c96103b8565b6040516100d69190610542565b60405180910390f35b6000600260009054906101000a900473ffffffffffffffffffffffffffffffffffffffff1690508073ffffffffffffffffffffffffffffffffffffffff166323b872dd3330670de0b6b3a76400008661013891906105c4565b6040518463ffffffff1660e01b8152600401610156939291906104a2565b602060405180830381600087803b15801561017057600080fd5b505af1158015610184573d6000803e3d6000fd5b505050506040513d601f19601f820116820180604052508101906101a891906103ec565b6101e7576040517f08c379a00000000000000000000000000000000000000000000000000000000081526004016101de90610502565b60405180910390fd5b81600160008282546101f9919061056e565b925050819055503373ffffffffffffffffffffffffffffffffffffffff167f5d8bc849764969eb1bcc6d0a2f55999d0167c1ccec240a4f39cf664ca9c4148e836040516102469190610542565b60405180910390a25050565b60008054906101000a900473ffffffffffffffffffffffffffffffffffffffff1673ffffffffffffffffffffffffffffffffffffffff163373ffffffffffffffffffffffffffffffffffffffff16146102e0576040517f08c379a00000000000000000000000000000000000000000000000000000000081526004016102d790610522565b60405180910390fd5b6000600260009054906101000a900473ffffffffffffffffffffffffffffffffffffffff1690508160016000828254610319919061061e565b925050819055508073ffffffffffffffffffffffffffffffffffffffff1663a9059cbb33846040518363ffffffff1660e01b815260040161035b9291906104d9565b602060405180830381600087803b15801561037557600080fd5b505af1158015610389573d6000803e3d6000fd5b505050506040513d601f19601f820116820180604052508101906103ad91906103ec565b505050565b60015481565b6000600154905090565b6000815190506103d18161071b565b92915050565b6000813590506103e681610732565b92915050565b6000602082840312156103fe57600080fd5b600061040c848285016103c2565b91505092915050565b60006020828403121561042757600080fd5b6000610435848285016103d7565b91505092915050565b61044781610652565b82525050565b600061045a600e8361055d565b9150610465826106c9565b602082019050919050565b600061047d601e8361055d565b9150610488826106f2565b602082019050919050565b61049c81610690565b82525050565b60006060820190506104b7600083018661043e565b6104c4602083018561043e565b6104d16040830184610493565b949350505050565b60006040820190506104ee600083018561043e565b6104fb6020830184610493565b9392505050565b6000602082019050818103600083015261051b8161044d565b9050919050565b6000602082019050818103600083015261053b81610470565b9050919050565b60006020820190506105576000830184610493565b92915050565b600082825260208201905092915050565b600061057982610690565b915061058483610690565b9250827fffffffffffffffffffffffffffffffffffffffffffffffffffffffffffffffff038211156105b9576105b861069a565b5b828201905092915050565b60006105cf82610690565b91506105da83610690565b9250817fffffffffffffffffffffffffffffffffffffffffffffffffffffffffffffffff04831182151516156106135761061261069a565b5b828202905092915050565b600061062982610690565b915061063483610690565b9250828210156106475761064661069a565b5b828203905092915050565b600061065d82610670565b9050919050565b60008115159050919050565b600073ffffffffffffffffffffffffffffffffffffffff82169050919050565b6000819050919050565b7f4e487b7100000000000000000000000000000000000000000000000000000000600052601160045260246000fd5b7f4465706f736974204661696c6564000000000000000000000000000000000000600082015250565b7f4f6e6c79206f776e65722063616e20776974686472617720746f6b656e730000600082015250565b61072481610664565b811461072f57600080fd5b50565b61073b81610690565b811461074657600080fd5b5056fea264697066735822122014124b38d0acbc8844aa48f12e97e33bc68fa229bf519f0f4b1f7df3e10b184164736f6c63430008040033",
  "linkReferences": {},
  "deployedLinkReferences": {}
}